:100000000C9433030C947A030C947A030C947A03C3
:100010000C947A030C947A030C947A030C947A036C
:100020000C947A030C947A030C943C290C940F2AB8
:100030000C9479220C947A030C947A030C947A032E
:100040000C947A030C947A030C947A030C947A033C
:100050000C947A030C94E1220C947A030C947A03A6
:100060000C947A030C947A030C947A030C947A031C
:100070000C947A030C947A030C947A030C947A030C
:100080000C940D0C0C947A030C947A030C947A0360
:100090000C947A030C947A030C947A030C947A03EC
:1000A0000C947A030C947A030C947A030763423617
:1000B000B79BD8A71A39685618AEBAAB558C1D3CF9
:1000C000B7CC5763BD6DEDFD753EF6177231BF00BD
:1000D0000000803F08000000BE922449123EABAAF7
:1000E000AA2ABECDCCCC4C3E00000080BEABAAAA52
:1000F000AA3E00000000BF000000803F000000009A
:1001000000084178D3BB4387D1133D190E3CC3BDD2
:100110004282AD2B3E68EC8276BED98FE1A93E4C7F
:1001200080EFFFBE01C4FF7F3F00000000003500EC
:100130001E001F00200021002200230024002500B3
:10014000260027002A002B0014001A0008001500C2
:1001500017001C0018000C00120013004C002900AE
:1001600004001600070009000A000B000D000E0035
:100170000F0033003400E1001D001B0006001900D1
:100180000500110010003600370038002862D75CE7
:10019000E000E200E300D55C2C002C00D65C5000AF
:1001A000510052004F0035001E001F0020002100AA
:1001B0002200230024002500260027002A002B000F
:1001C00014001A00090013000A000D000F001800A7
:1001D0001C0033004C002900040015001600170015
:1001E00007000B00110008000C0012003400E100B1
:1001F0001D001B000600190005000E00100036004F
:10020000370038002800D75CE000E200E300D55C4E
:100210002C002C00D65C5000510052004F003500DD
:100220001E001F00200021002200230024002500C2
:10023000260027002A002B00340036003700130068
:100240001C0009000A00060015000F004C002900E0
:1002500004001200080018000C0007000B00170033
:10026000110016003800E100330014000D000E00EC
:100270001B00050010001A0019001D002800D75CA3
:10028000E000E200E300D55C2C002C00D65C5000BE
:10029000510052004F0035021E021F0220022102AF
:1002A0002202230224022502260227022A00350206
:1002B0001E021F0220022102220223022402250222
:1002C000260227024C004C003A003B003C003D0057
:1002D0003E003F002D022E022F02300231020100AB
:1002E00040004100420043004400450032026402E5
:1002F0004A004D0001000100010001000100010061
:10030000010001000100AB00AA00A900AE00350009
:100310001E001F00200021002200230024002500D1
:10032000260027002A0035001E001F0020002100A3
:100330002200230024002500260027004C004C004A
:100340003A003B003C003D003E003F002D002E00E7
:100350002F00300031000100400041004200430006
:1003600044004500320064004B004E0001000100D3
:100370000100010001000100010001000100AB00CB
:10038000AA00A900AE003A003B003C003D003E0040
:100390003F0040004100420043004400450001008E
:1003A000005C015C01000100010001000000000090
:1003B000010001004C0001000100235C1D5C1E5C7B
:1003C000135C0A5CD25CD35CD45C010001000100C8
:1003D000255C245C205C215C265C275C010001001C
:1003E0000100010001000100010001000100010005
:1003F000010001000100010001000100010044456D
:100400004255473A20656E61626C65642E0A000AA7
:10041000002530313662003A200025303258000A7B
:10042000722F632030313233343536373839414218
:10043000434445460A00617564696F20706C6179B8
:10044000206E6F746520667265713D256420766F3D
:100450006C3D256400617564696F2073746F702052
:100460006E6F746520667265713D25640061756408
:10047000696F2073746F7020616C6C206E6F74658F
:1004800073000A002530325820006B6579626F6175
:1004900072645F7265706F72743A20000A002530D2
:1004A0003258006B6579626F6172645F7365745F67
:1004B0006C65643A20006261636B6C6967687420E4
:1004C000737465703A2025750A006261636B6C690C
:1004D00067687420746F67676C653A2025750A0039
:1004E0006261636B6C6967687420646563726561DF
:1004F00073653A2025750A006261636B6C696768F1
:100500007420696E6372656173653A2025750A000F
:100510005B735D004B6579626F6172642073746117
:1005200072742E0A005B575D005B535D005B525D89
:10053000005B445D005B435D00040330000000107D
:10054000035000720065006F006E006900630000D8
:10055000000A034F004C004B004200000004030956
:100560000409025B00030100A0FA09040000010372
:10057000010100092111010001224000070581034A
:1005800008000A090401000103000000092111010B
:1005900000012236000705820308000A0904020050
:1005A00002030000000921110100012222000705B9
:1005B000830320000107050303200001120110013D
:1005C00000000008EDFE6160020001020301063137
:1005D000FF0974A1010975150026FF009520750813
:1005E00081020976150026FF00952075089102C04A
:1005F00005010980A10185021601002603001A8168
:10060000002A8300751095018100C0050C0901A125
:10061000018503160100269C021A01002A9C02751E
:100620001095018100C005010906A101050719E027
:1006300029E71500250195087501810295017508C6
:10064000810105081901290595057501910295019A
:10065000750391010507190029FF150026FF009574
:100660000675088100C011241FBECFEFDAE0DEBF9F
:10067000CDBF04B603FE27C08091A2069091A306C9
:10068000A091A406B091A5068730904BA740B04B2F
:10069000D1F41092A2061092A3061092A406109212
:1006A000A50614BE84B7877F84BF0FB6F894A895BB
:1006B00080916000886180936000109260000FBE9E
:1006C000E0E0F8E3099515E0A0E0B1E0E4E3F2E64C
:1006D00002C005900D92A837B107D9F726E0A8E728
:1006E000B5E001C01D92A23AB207E1F70E945F2671
:1006F0000C9418310C940000FF93EF93E09178056F
:10070000F0917905309709F00995EF91FF910895DF
:10071000FC018591803011F0EFDFFBCF0895FF27BA
:10072000E0E230E247FF0CC0419597FF09C0EDE2DF
:100730006095709580959095611D711D811D911D2D
:1007400027FF02C0219530E350E2AA27660F771FEA
:10075000881F991FAA1FA41710F0A41B63955A9510
:10076000A9F7AA3008F0A95FA05DAF93F3956115D2
:1007700071058105910541F7ED3211F4EF93F39581
:10078000F21718F43F93F395FBCF8F91B5DFFA95ED
:10079000E1F70895E991F9918591803021F0853252
:1007A00019F0AADFF9CF089520E0E8945591553269
:1007B000C1F3503311F4689455915A3348F45053AF
:1007C00090F3220F022E220F220F200D250FF4CFBF
:1007D0000EF4219589919991533619F3533729F1E4
:1007E000533559F1BC0188279927E8945C3621F4E8
:1007F0008991999168945591543639F446EF7EF079
:1008000077FF0DC08FEF9FEF0AC055374AE039F0F0
:10081000583540E121F0523642E009F00895FF9347
:10082000EF937DDFEF91FF91B7CFFF93EF93FC0143
:1008300081918030B9F360DFFBCFFF93EF9368DFE6
:10084000F1CFDF93CF93CDB7DEB72596A3DFCF915E
:10085000DF9108956E9A769A0C940D0ACF93FB015E
:10086000843D2CE5920759F148F4823D2CE592072E
:10087000B9F0833D9C45D9F0C1E016C0863D2CE51A
:10088000920771F108F1873D9C45B1F7C28185EE71
:10089000CC2389F10E9490170E94E12376980DC025
:1008A000C28180E0C11107C08C2FCF910895C28111
:1008B000CC23D1F381E00E948304C0E0F5CFC28154
:1008C00082E0CC2389F3F7CFC28183E0CC2359F0B7
:1008D0000E94CB1F45E064E083E00E94A304EDCFBB
:1008E000C28184E0F3CF0E94EC1F45E064E083E026
:1008F0000E94A304D9CF0E948718769AD5CF81E0B1
:1009000008950C942E04CF93DF93C82F20E8829F84
:10091000C001112440E060E170E08C5F9E4F0E94B6
:100920002D0F61E070E0CB0102C0880F991FCA95BE
:10093000E2F7EC010E94CA21BE0190E080E0DF9165
:10094000CF910C94691F8F929F92AF92BF92CF92DA
:10095000DF92EF92FF920F931F93C12CD12C76015F
:10096000C3949701860104C0000F111F221F331F7B
:100970006A95D2F74601570104C0880C991CAA1C3D
:10098000BB1C8A95D2F7D501C401802B912BA22BD9
:10099000B32B00916106109162062091630630919D
:1009A0006406082319232A233B2380179107A207F3
:1009B000B30769F4842F1F910F91FF90EF90DF90A0
:1009C000CF90BF90AF909F908F900C94CB1F842FAF
:1009D0001F910F91FF90EF90DF90CF90BF90AF905D
:1009E0009F908F900C94EC1F0E9432140C940F0A6D
:1009F000CF92DF92EF92FF92843028F5811124C0CC
:100A000090918000977F90938000282F30E0AFEF87
:100A1000BFEF0E94453023E030E040E050E00E940C
:100A20001D30C9012C3764E1360790F469E070E0AD
:100A30000E94F52F70938D0060938C00FF90EF90D3
:100A4000DF90CF90089583E0909180009860DBCF95
:100A50002A50374D4F4F5F4F942F832F722F6627A9
:100A600025EF38E241E050E00E941D3069017A0133
:100A7000CA01B9010E94D92F9B01AC01C701B6017F
:100A80000E94D92F672F782F892F9927611571051B
:100A900021E08207910571F66FEF7FEFCBCF279AA8
:100AA0002F988AE08093800089E1809381008FEF06
:100AB0009FEF90938700809386000C9444230E94BC
:100AC0004F050E94A90F0C942A0408950C94650503
:100AD0000C9466050895CF93DF930E94881B0E94B3
:100AE00000140E94AB22EC0140E063E070E084EB74
:100AF00092E00E942D0F0E946A05CE010E94B7224B
:100B00008A3F910530F00E94D20FDF91CF910C9473
:100B100007238FE99FE00197F1F700C00000EDCFB8
:100B20000F931F93CF93DF938C01FC01C081D18180
:100B3000CE010E946720BE010E943307EC01B8017C
:100B40000E948104882309F460C0B801CE010E948C
:100B50008E0B882309F459C0B801CE010E94961467
:100B6000882309F452C0B801CE010E94BE0988232F
:100B700009F44BC0C531FCE5DF0709F450C1B0F4FE
:100B8000C130ECE5DE0709F446C008F05AC0C115D3
:100B9000DC45B1F181E080937F0580938005C80139
:100BA000DF91CF911F910F910C947F04CD3CECE528
:100BB000DE0709F419C1B8F4CB3C8CE5D80709F479
:100BC000D7C0CC3CDC4531F7F8018281882309F499
:100BD000F6C0109280050E94AB2290937E05809310
:100BE0007D0580E2D2C0C03DFCE5DF0711F1C13DCB
:100BF000DC4581F6F8018281882339F082E01EC04D
:100C0000F801828181110E946B0580E0DF91CF9114
:100C10001F910F910895F80182818823B1F380918B
:100C200076068160809376068EEF93E00E948803BB
:100C3000ECCFF8018281882341F380E00E940427F1
:100C4000E4CFF8018281882309F4A9CF0E94B7215B
:100C5000811102C00E9493210E94CF2190E09093C5
:100C6000930680939206FE01E350FC45E231F105C4
:100C7000B0F4E35CF94F0C943F30550659065D061D
:100C80006106650669066D067106850689068D068C
:100C90009106950699069D06A106A506B1068091C6
:100CA000920681608093920629C0809192068260AC
:100CB000F9CF809192068460F5CF8091920688608A
:100CC000F1CF809192068061EDCF80919206806293
:100CD000E9CF809192068064E5CF8091920680688A
:100CE000E1CF80919206846088608093920640E014
:100CF00064E070E084E892E00E942D0F80919206FB
:100D00000E94D3210E94881B80CF809192068E7F03
:100D1000C9CF809192068D7FC5CF809192068B7F3F
:100D2000C1CF80919206877FBDCF809192068F7E42
:100D3000B9CF809192068F7DB5CF809192068F7B3F
:100D4000B1CF809192068F77ADCF809192068B7F45
:100D5000877F8093920640E062E070E084EA92E050
:100D6000CBCF90919206892F97FB87F980589ACF25
:100D7000F8018281882361F010927F050E94AB22E6
:100D800090937C0580937B0582E00E94D6183DCF2E
:100D900080917F0581110FC080917B0590917C052A
:100DA0000E94B722883C910530F486E20E94901799
:100DB00086E20E94871882E00E94DD1826CF80918B
:100DC000800581110FC080917D0590917E050E9464
:100DD000B722883C910530F487E20E94901787E2A1
:100DE0000E94871880E2E8CFF80182818111F1CE5C
:100DF000809180058111F6CF80917D0590917E05CF
:100E00000E94B722883C910568F780E20E94DD18B5
:100E100088E20E94901788E20E948718F6CE0E940E
:100E20002D21F8019281992381F08A7A91E009F4C9
:100E300090E090937A05811106C089E20E94B62065
:100E40000E94FA20E2CE85E3F9CF80917A058111E4
:100E500004C089E20E94BD20F3CF85E3FBCF90E080
:100E600080E008950895972F70E02CE0929F600D28
:100E7000711D1124FB019CE3899FE00DF11D1124DC
:100E8000EE0FFF1FE25DFE4F859194910895FC01E6
:100E9000EE0FFF1FE15FFB4F859194910895CF9373
:100EA000DF930E9433070E941009EC0181159145E0
:100EB00008F04BC0C11580E5D80708F031C1C83E25
:100EC000D10510F5C03ED10580F5C83AD10570F4C2
:100ED000C53AD10508F0B7C0C130D10531F118F0DD
:100EE000C430D10510F5D0E0C0E01FC0CD3BD10526
:100EF00008F4B4C0CE01805C9109C03CD10598F3E0
:100F00000E944707EC0111C0C11520E3D20788F405
:100F1000C11580E2D80708F0FAC0C03FD10518F328
:100F2000CF3FD10509F008F4F0C0CE01DF91CF9199
:100F30000895C11520E4D20708F0EFC0CE0199272B
:100F4000D3FFE8C0EC01D86CF0CFC11586E5D80717
:100F5000D8F5C11525E5D20708F008C1C11583E50C
:100F6000D807C8F4C11522E5D20708F4F5C0CE01B0
:100F70008370992721E030E002C0220F331F8A9549
:100F8000E2F7C695C69580E2C89FE0011124C22B06
:100F9000D32BDC68CACFC11584E5D80708F0E1C0BF
:100FA000CE018370992721E030E002C0220F331F69
:100FB0008A95E2F7C695C69580E2C89FE0011124A4
:100FC000C22BD32BDA68B1CFC53B2CE5D20709F48D
:100FD000D9C098F4C33B2CE5D20709F4CDC008F082
:100FE000CEC0CE0198558F3F910511F008F07BCF10
:100FF000DC2FCC27C06FD06A98CFC83B2CE5D20736
:1010000009F4C6C060F4C63B2CE5D20709F4BDC0A4
:10101000C73BDC4509F067CFC0E0D2ED86CFCE01FB
:1010200090568115904208F05ECF8D2F8F710E94EF
:101030009009DD27D06290E0982F882788279F713C
:10104000C82BD92B72CFC53AD10509F4A4C0C63A32
:10105000D10509F4A3C0C3E8D0E467CFC83AD105ED
:1010600009F49FC0C93AD10509F49EC0CA3AD10516
:1010700009F49DC0CB3AD10509F49CC0CC3AD10506
:1010800009F49BC0CB3BD10509F49AC0CC3BD105F8
:1010900009F499C0CD3AD10509F498C0C03BD105F7
:1010A00009F497C0CE3AD10509F496C0CF3AD105DC
:1010B00009F495C0C13BD10509F494C0C23BD105E8
:1010C00009F493C0C33BD10509F492C0C43BD105D8
:1010D00009F491C0C53BD10509F490C0C63BD105C8
:1010E00009F48FC0C73BD10509F48EC0C83BD105B8
:1010F00009F48DC0C93BD10509F48CC0CA3BD105A8
:1011000009F08BC0CAE2D6E410CFD0650ECFCE0175
:101110009F70F6CEEC01D06C08CFDF70D06A05CF9F
:10112000CE0174E0969587957A95E1F783709C2FB0
:10113000937021E030E002C0220F331F9A95E2F74E
:101140003C68382BC695C695C37080E2C89FE00105
:101150001124C22BD32BE9CEDC2FCC27C16FD06A50
:10116000E4CEDC2FCC27C46FD06ADFCEDC2FCC27B7
:10117000CC27DF71D062D9CEC0E0D4EDD6CEC0E0AE
:10118000D5EDD3CEC0E0D1EDD0CEC0E0D0EDCDCE08
:10119000C0E0D3EDCACEC1E8D0E4C7CEC2E8D0E407
:1011A000C4CEC2EED4E4C1CEC9EED4E4BECECAEE03
:1011B000D4E4BBCEC5EBD4E4B8CEC6EBD4E4B5CE14
:1011C000C3EBD4E4B2CEC4EBD4E4AFCEC7EBD4E4EB
:1011D000ACCECCECD4E4A9CECDECD4E4A6CEC3E81E
:1011E000D5E4A3CECAE8D5E4A0CEC2E9D5E49DCE2D
:1011F000C4E9D5E49ACEC1E2D6E497CEC3E2D6E400
:1012000094CEC4E2D6E491CEC5E2D6E48ECEC6E258
:10121000D6E48BCEC7E2D6E488CEC0E0D4E485CE57
:101220008238910549F1B0F48133910509F45CC02D
:1012300048F48932910509F452C08A32910509F4C3
:1012400058C008958533910509F444C08933910548
:1012500099F00895833E910531F138F4803E91056F
:1012600091F0823E9105B1F00895863E910511F10D
:10127000873E910541F10895209192062370C9F0AF
:1012800080EE90E008952091920620FF12C089E33D
:1012900090E008952091920622FF0BC024FF2EC0FB
:1012A00090E080E008952091920622FD2AC024FD5E
:1012B000F7CF08952091920623FFFBCF24FDF0CFB6
:1012C00087EE90E008952091920623FFF0CF86EEFE
:1012D00090E008952091920625FD16C00895209172
:1012E000920625FD14C008952091920626FD12C095
:1012F00008952091920626FD10C0089583EE90E097
:10130000089582EE90E0089589E290E0089585E3E3
:1013100090E008958AE290E0089581E390E0C9CFDB
:10132000CF93C82F0E94CF21282F30E0309393060F
:101330002093920682FF06C09C2F9871983079F412
:10134000C77FC46083FF06C09C2F9871983171F4E9
:10135000C77EC46184FDC77E8C2FCF9108959C2FDA
:101360009471943079F7CB7FC860ECCF9C2F947147
:10137000943181F7CB7EC861EDCF08950F931F9311
:10138000CF938C01FB018281811106C0C1E08C2FBB
:10139000CF911F910F910895C0918E05C11125C065
:1013A00006311C4599F70E94BD0981E080938E05A6
:1013B0000E94AB2290938D0580938C05109281053D
:1013C0001092830510928205109285051092840573
:1013D0001092870510928605109289051092880553
:1013E00010928B0510928A05D2CF80918C05909136
:1013F0008D050E94B722883C910540F680918105B9
:10140000E82FF0E0EE0FFF1FEE57FA4F1183008335
:101410008F5F80938105C0E0BACF089508950C9442
:101420000E0ACF93DF9385B7806885BF85B7806844
:1014300085BFA3E1B5E048E155E0C1E0D0E08D9182
:10144000E82FE295EF70F0E061A18F709E0101C07E
:10145000220F8A95EAF7922F9095962391A382A165
:10146000822B82A34A175B0751F7A7E0B5E061E042
:1014700070E08D91E82FE295EF70F0E041A18F7060
:101480009B0101C0220F8A95EAF7922F9095942331
:1014900091A382A1822B82A385E0A331B80749F7EB
:1014A00010929A05109299051092900510928F054E
:1014B00010929C0510929B05109292051092910536
:1014C00010929E0510929D0510929405109293051E
:1014D0001092A00510929F05109296051092950506
:1014E0001092A2051092A1051092980510929705EE
:1014F000DF91CF910C945F056F927F929F92AF9294
:10150000BF92CF92DF92EF92FF920F931F93CF93F0
:10151000DF93CFE8D5E003E115E0EE24E394F12C6E
:10152000BB24B394C880D98019821882D8018D91C8
:101530008D01E82FE295EF70F0E091A18F70970197
:1015400001C0220F8A95EAF7892F822B81A382A1FD
:10155000A22EA0948A2182A3B0EABA95F1F787E07F
:10156000682E85E0782E90E080E0D3017D913D01EA
:10157000472F42954F7050E0DA0190969C90488139
:1015800059817F70D70102C0AA0FBB1F7A95E2F77D
:10159000BD01692109F06FC0B701082E02C0660FB6
:1015A000771F0A94E2F7462B572B598348830196FD
:1015B0008C309105D1F681A18A2181A382A1282BAB
:1015C00022A388819981C816D90641F0B092A3055B
:1015D0000E94AB229093A5058093A4052296B5E0C6
:1015E00008311B0709F09ECF8091A305882391F154
:1015F0008091A4059091A5050E94B722069750F10D
:1016000080918F059091900590939A05809399050C
:10161000809191059091920590939C0580939B05F4
:10162000809193059091940590939E0580939D05DC
:1016300080919505909196059093A00580939F05C4
:1016400080919705909198059093A2058093A105AC
:101650001092A3050E94F40481E0DF91CF911F91C5
:101660000F91FF90EF90DF90CF90BF90AF909F9041
:101670007F906F90089570E060E095CFE82FF0E0E4
:10168000EE0FFF1FE756FA4F808191810895CF92A8
:10169000DF92EF92FF920F931F93CF93DF938FE12F
:1016A00094E00E94880389E9E82E85E0F82ED0E0D6
:1016B000C0E09AE1C92E94E0D92E01E114E0DF9355
:1016C000CF93DF92CF920E94210487E194E00E94A1
:1016D0008803F701819191917F010E9486219F9358
:1016E0008F931F930F930E9421048FE094E00E9438
:1016F000880321968DB79EB708960FB6F8949EBFC3
:101700000FBE8DBFC530D105D1F6DF91CF911F91AE
:101710000F91FF90EF90DF90CF900895FB018D31F6
:101720002CE5920739F482818823A1F10E944511AA
:1017300080E008958E312CE5920731F48281882370
:1017400049F10E945511F4CF8F312CE5920741F4F5
:1017500082818823F9F00E9441118111F2CFE6CFF6
:1017600084322CE5920769F48281882399F00E94E3
:101770006E1140E064E070E08CEC92E00E942D0F6E
:10178000D7CF85329C4531F48281882319F00E949D
:101790007711EFCF81E008958554990BBC01990F23
:1017A000880B990B0E94DE2C20E030E040E451E4ED
:1017B0000E94342C9B01AC0160E070E080E090E47A
:1017C0000E94622E20E030E04CED53E40E94F52DA3
:1017D0004FE050E00C94C9108554990BBC01990F4F
:1017E000880B990B0E94DE2C20E030E040E451E4AD
:1017F0000E94342C9B01AC0160E070E080E090E43A
:101800000E94622E20E030E04CED53E40E94F52D62
:101810000C9419100C94D20F08951F920F920FB6CA
:101820000F9211244F925F926F927F928F929F92AC
:10183000AF92BF92CF92DF92EF92FF922F933F939E
:101840004F935F936F937F938F939F93AF93BF93C8
:10185000EF93FF938091B905882309F4CAC0E09003
:10186000FB05F090FC051E141F040CF0C2C0409054
:10187000A9055090AA056090AB057090AC0520E0DA
:1018800030E0A901C301B2010E94F02D18160CF03E
:1018900093C121E0E216F10409F452C08091F905E8
:1018A0009091FA05B7010E9409306C019093FA05F6
:1018B0008093F9058090BB059090BC05A090BD0574
:1018C000B090BE0520E030E040E85FE3C501B40120
:1018D0000E94C32B6093BB057093BC058093BD052C
:1018E0009093BE05F601EE0FFF1FEE0FFF1FE153B1
:1018F000FA4FA301920160817181828193810E94DC
:10190000342C20E030E040E05EE30E94F52D9B01A6
:10191000AC01C501B4010E94F02D18168CF4C6016B
:101920000196B7010E9409309093FA058093F9055A
:101930001092BB051092BC051092BD051092BE0519
:10194000E091F905F091FA05EE0FFF1FEE0FFF1F72
:10195000E153FA4F60817181828193812091A605C4
:101960003091A7052F3F320731F02F5F3F4F309363
:10197000A7052093A6050E9480116B017C0120E041
:1019800034E244EF51E40E942F2C87FF08C086EF19
:10199000C82E88E2D82E84EFE82E81E4F82E20E0CD
:1019A00030E040E051E4C701B6010E94F52D9B01F3
:1019B000AC0160E074E284E79BE40E94342C6B018C
:1019C0007C010E94AD2C709397006093960020914B
:1019D0002D0330912E0340912F0350913003C70106
:1019E000B6010E94F52D0E94AD2C70939900609372
:1019F00098008091BA05882309F4B4C1C090B50558
:101A0000D090B605E090B705F090B80520E030E042
:101A1000A901C701B6010E94F02D18160CF091C162
:101A20008091A6059091A7058F3F980729F0019610
:101A30009093A7058093A605C701B6010E94801167
:101A400020E030E040E051E40E94F52D9B01AC0124
:101A500060E074E284E79BE40E94342C6B017C011B
:101A60000E94AD2C709397006093960020912D03F7
:101A700030912E0340912F0350913003C701B601DE
:101A80000E94F52D0E94AD2C7093990060939800F0
:101A90006091AF057091B0056F5F7F4F7093B00597
:101AA0006093AF05E0909600F090970090E080E0A2
:101AB0000E94DC2C4B015C014090B1055090B205B6
:101AC0006090B3057090B405EF2809F443C180918C
:101AD000AE0581113FC1609196007091970090E032
:101AE00080E00E94DC2C9B01AC01C301B2010E948A
:101AF000342C20E03FEF4FE757E40E94F52D20E023
:101B000030E040E85FE30E94C22BA50194010E94EF
:101B10002F2C18160CF426C18091AD058F5F809391
:101B2000AD0520918606309187068217130638F09E
:101B300080918D06882309F41EC11092AD05E091B5
:101B40008806F09189069091AD058091AE058111CE
:101B500044C181E08093AE0591509093AD0548E07B
:101B6000949F90011124E20FF31FC080D180E28086
:101B7000F3802085318542855385C701B6010E94D7
:101B80002F2C811121C11092B5051092B60510922B
:101B9000B7051092B80580E090E0A0E8BFE380931D
:101BA000B1059093B205A093B305B093B40510921C
:101BB000B0051092AF05D6C0F701EE0FFF1FEE0F74
:101BC000FF1FE553FA4F80809180A280B3808091FF
:101BD0002C03882309F4ACC0C090F505D090F6051D
:101BE000E090F705F090F80520E030E0A901C7018A
:101BF000B6010E942F2C882309F49AC0A5019401F4
:101C0000C701B6010E942F2C87FF5BC0A50194017C
:101C100060E070E08CED93EC0E94342C20E030E02A
:101C200040E451E40E94342C20E030E040E05FE3E7
:101C30000E94F52D9B01AC0160E070E080E090E433
:101C40000E94622EA50194010E94F52D9B01AC011A
:101C5000C701B6010E942F2C87FF33C0A701960150
:101C600060E070E08CED93E40E94342C20E030E0E2
:101C700040E451E40E94342C20E030E040E05FE397
:101C80000E94F52D9B01AC0160E070E080E090E4E3
:101C90000E94622E9B01AC01C701B6010E94F52D86
:101CA0006093F5057093F6058093F7059093F8051A
:101CB0006091F5057091F6058091F7059091F80512
:101CC0004DCEA5019401C701B6010E94F02D181652
:101CD0007CF5A501940160E070E08CED93E40E9436
:101CE000342C20E030E040E451E40E94342C20E029
:101CF00030E040E05FE30E94F52D9B01AC0160E025
:101D000070E080E090E40E94622EA50194010E94A0
:101D1000F52D9B01AC01C701B6010E94F02D1816EC
:101D20003CF4A701960160E070E08CED93EC9CCF51
:101D30008092F5059092F605A092F705B092F8050D
:101D4000B7CF1092970010929600109299001092BF
:101D500098009ECEA3019201C501B4010E94F02D0E
:101D600087FFDACE80918A0680FD11C01092BA05F5
:101D70001092B9050CC0809171008D7F8093710025
:101D8000809190008F73809390001092BA05FF911C
:101D9000EF91BF91AF919F918F917F916F915F91E3
:101DA0004F913F912F91FF90EF90DF90CF90BF9098
:101DB000AF909F908F907F906F905F904F900F901B
:101DC0000FBE0F901F901895C092B505D092B60522
:101DD000E092B705F092B805DECE1092AE051092F3
:101DE000A7051092A60528E0929FC0011124E80FD4
:101DF000F91F80819181A281B3818093B505909371
:101E0000B605A093B705B093B80520E030E040E8F0
:101E10005EE364817581868197810E94F52D6B0157
:101E20007C016091310370E090E080E00E94DC2C46
:101E300020E030E048EC52E40E94342C9B01AC01DD
:101E4000C701B6010E94F52D6093B1057093B205EC
:101E50008093B3059093B405AACECF92DF92EF9210
:101E6000FF92CF93DF93EC016B01F42E8091A805D4
:101E7000811102C00E94A90F80918A0680FF62C072
:101E8000809171008D7F809371008091B9058111DF
:101E90000E94D20F81E08093BA05D0938906C09347
:101EA0008806D0928706C0928606F0928D06109220
:101EB000BB051092BC051092BD051092BE05109294
:101EC000AD0588819981AA81BB818093B5059093E6
:101ED000B605A093B705B093B80520E030E040E820
:101EE0005EE36C817D818E819F810E94F52D6B0167
:101EF0007C016091310370E090E080E00E94DC2C76
:101F000020E030E048EC52E40E94342C9B01AC010C
:101F1000C701B6010E94F52D6093B1057093B2051B
:101F20008093B3059093B4051092B0051092AF055D
:101F30008091710082608093710080919000806830
:101F400080939000DF91CF91FF90EF90DF90CF9042
:101F500008950E94B721811102C00E9493210E941E
:101F6000E12180938A068091A80581110FC03E9AD5
:101F7000809171008D7F8093710082E0809390004A
:101F80008AE18093910081E08093A80580918A0680
:101F900080FF07C040E064E070E08CE093E00C94C8
:101FA0002D0F08958091760680FF08C08DE694E09D
:101FB0009F938F930E9421040F900F908091A8050A
:101FC000811102C00E94A90F1092FC051092FB051E
:101FD000809171008D7F80937100809190008F734C
:101FE000809390001092BA051092B9051092F505F1
:101FF0001092F6051092F7051092F8051092F1056F
:102000001092F2051092F3051092F4051092F0056B
:102010001092EF05EFECF5E0AFEBB5E01192119205
:10202000119211921D921D9285E0EF3EF807B1F7D3
:102030000895CF92DF92EF92FF920F931F93CF9369
:10204000DF936B017C018091760680FF0FC0C70192
:102050000E94A62C7F936F9385E594E09F938F93C6
:102060000E9421040F900F900F900F908091B9055E
:10207000882309F467C08091A805811102C00E94DD
:10208000A90F0FEC15E0C7E0D0E0A7019601F80119
:10209000648D758D868D978D0E942F2C81116CC05B
:1020A000FE01EE0FFF1FEE0FFF1FE153FA4F1082EC
:1020B000118212821382CC0FDD1FC154DA4F1982B4
:1020C000188285E0EB3EF80709F045C08091FB05DA
:1020D0009091FC05019797FD57C09093FC05809364
:1020E000FB058091FB059091FC052091F90530914D
:1020F000FA052817390724F01092FA051092F9050D
:10210000892B01F5809171008D7F80937100809102
:1021100090008F73809390001092F5051092F60551
:102120001092F7051092F8051092F1051092F20541
:102130001092F3051092F4051092F0051092EF053D
:102140001092B905DF91CF911F910F91FF90EF9001
:10215000DF90CF90089584819581A681B781819386
:102160009193A193B19310821182128213828A817A
:102170009B8189939993A3CF219704501109CF3F55
:10218000DC0709F082CFA2CF1092FC051092FB056C
:10219000A8CFCF92DF92EF92FF92CF93DF936B01A4
:1021A0007C01D42FC52F8091760680FF13C05F93EA
:1021B0004F93C7010E94A62C7F936F9386E394E010
:1021C0009F938F930E9421040F900F900F900F9078
:1021D0000F900F908091A805811102C00E94A90F55
:1021E00080918A0680FF46C08091FB059091FC0596
:1021F00008970CF03FC0809171008D7F8093710033
:102200008091BA0581110E94D20F81E08093B905B7
:102210001092A7051092A60520E030E0A901C701A1
:10222000B6010E94F02D1816DCF48091FB05909108
:10223000FC05FC01EE0FFF1FEE0FFF1FE153FA4FED
:10224000C082D182E282F382FC01EE0FFF1FE154D3
:10225000FA4FD083C18301969093FC058093FB05D0
:1022600080917100826080937100809190008068FD
:1022700080939000DF91CF91FF90EF90DF90CF900F
:10228000089580918A068170089580918A06816000
:1022900080938A060E94E5210E940C0C40E062E0D7
:1022A00070E08CEF92E00C942D0F40E062E070E063
:1022B0008CEE92E00E942D0F2FEF81EE94E02150E2
:1022C00080409040E1F700C000000E94D20F809152
:1022D0008A068E7F80938A060C94E5218091FD0505
:1022E00090E00196877099278093FD05089580916D
:1022F000FD0590E00796877099278093FD05089566
:102300008F929F92AF92BF92CF92DF92EF92FF9205
:10231000CF93DF936B017C01C091A605D091A705F7
:10232000BE0190E080E00E94DC2C4B015C01A70123
:10233000960160E070E08CE594E40E94342C9B01EF
:10234000AC01C501B4010E94F52D0E94AD2C9B018A
:10235000E091FD05E83018F5F0E0EF54FE4E0C94E6
:102360003F30B911DC11F511FD12CF114513761371
:10237000B41310922C0380E090E0A0E0BFE38093C0
:102380002D0390932E03A0932F03B093300310924C
:10239000A9051092AA051092AB051092AC05C701D1
:1023A000B601DF91CF91FF90EF90DF90CF90BF907B
:1023B000AF909F908F90089510922C031092A905D2
:1023C0001092AA051092AB051092AC056A507109E3
:1023D00080E090E0A0E8BEE36F3B710508F460C0C8
:1023E00080E090E0A0E0BEE35BC010922C0310926E
:1023F000A9051092AA051092AB051092AC0520E039
:1024000030E040EA52E4C701B6010E942F2C87FD5C
:10241000C6CF20E030E040E253E4C701B6010E949D
:102420002F2C87FF46C00E94AB3068E270E00E940C
:102430000930BC01645C7F4F072E000C880B990BA0
:102440000E94DE2C6B017C018091A6059091A7056E
:102450008B30910508F18531910508F052C065E196
:1024600070E0681B790B90E080E00E94DC2C20E09B
:1024700030E040E05FE30E94F52D20E030E040E2F4
:1024800051E40E94342C60932D0370932E038093AB
:102490002F039093300383CF80E090E0A0E0BFE370
:1024A00080932D0390932E03A0932F03B0933003BA
:1024B00076CF20E030E040EA53E4C701B6010E9445
:1024C0002F2C87FF27C00E94AB3068EE73E00E947C
:1024D0000930BC0168517C4F072E000C880B990B0A
:1024E0000E94DE2C6B017C018091A6059091A705CE
:1024F0008630910588F265E170E08531910508F438
:102500006BC010922D0310922E0310922F03109285
:10251000300345CF20E030E040E254E4C701B6018B
:102520000E942F2C87FF2FC00E94AB3060ED77E018
:102530000E940930BC016854744F072E000C880BB0
:10254000990B0E94DE2C6B017C018091A605909175
:10255000A7058031910508F49FCF8531910588F654
:1025600065E170E0681B790B90E080E00E94DC2C54
:1025700020E030E040E05FE30E94F52D20E030E015
:1025800040EA50E47ECF20E030E040EA54E4C70166
:10259000B6010E942F2C87FF02CF0E94AB3060ED66
:1025A00077E00E940930BC016854744F072E000C7C
:1025B000880B990B0E94DE2C6B017C018091A60593
:1025C0009091A7058432910508F466CF8333910575
:1025D00008F097CF63E370E0681B790B90E080E030
:1025E0000E94DC2C20E030E040E05FE30E94F52D0B
:1025F00020E030E040E751E444CF41E040932C0339
:102600001092A9051092AA051092AB051092AC0584
:102610006431710540F46A30710560F120E030E00A
:1026200040E05FE32BC0693C710508F06ACF90E0A1
:1026300080E00E94DC2C20E030E040EA51E40E947F
:10264000C22B20E030E044E353E40E94342C9B0191
:10265000AC010E94F52D20E030E040E05EE30E94F6
:10266000F52D9B01AC0160E070E080E09EE30E94EC
:10267000C22B09CF20E030E040E85EE3C701B6019D
:102680000E94F52D6B017C01ABCE21E020932C0341
:102690001092A9051092AA051092AB051092AC05F4
:1026A0004AE0469F9001479F300D1124C90168EB15
:1026B0007BE00E94F52FBC016C5D754077FF03C085
:1026C000719561957109072E000C880B990B0E947A
:1026D000DE2C2EE333EC4EE259E30E94F52D20E090
:1026E00030E040EC5EE30E94C32BCDCE81E08093CE
:1026F0002C031092A9051092AA051092AB05109216
:10270000AC05CE0183709927892B09F1BE01617058
:10271000772790E080E00E94DC2C20E030E040E071
:102720005EE30E94F52D20E030E040E45FE30E948C
:10273000C32B60932D0370932E0380932F039093EC
:102740003003C770DD27CD2B09F029CEDACE80E02B
:1027500090E0A0E0BFE380932D0390932E03A0931D
:102760002F03B0933003EDCF41E040932C03109240
:10277000A9051092AA051092AB051092AC05812C08
:10278000912CA12C9FE3B92E80922D0390922E03C1
:10279000A0922F03B09230032739310508F4FFCD02
:1027A00090E080E00E94DC2C20E030E047E153E440
:1027B0000E94C22B20E030E04AE754E40E94342C0F
:1027C00020E030E048E452E40E94F52D20E030E0C3
:1027D00040EA51E40E94242D0E94A62C660F771F28
:1027E000660F771F685E7A4FFB012081318142813D
:1027F0005381C701B6010E94F52D6B017C01CFCD3D
:102800008091170681110C940A0C08950E940014FF
:102810001092170640E068E070E082EB93E00C94C1
:102820002D0F1092160640E068E070E082E393E01E
:102830000C942D0F0E9400142091150630E02F5F9C
:102840003F4F237033272093150648E2429FC00173
:10285000439F900D112440E065E070E08E5C9B4F3B
:102860000C942D0FCF93809112068823F1F0809164
:10287000FE059091FF05009779F40E94AB2290939A
:10288000FF058093FE0580910006282F30E0882305
:1028900071F0C90101970FC00E94B7222091D204A4
:1028A0003091D3042817390740F3CF9108958091D0
:1028B00001068150990B2E5F394FF901C08120919B
:1028C0001706222331F08E5F994FFC0180810E9410
:1028D000EC0B80911706882319F08C2F0E94CC0BEB
:1028E0008091000690E001966091010670E00E94E0
:1028F000093080930006D9CF089581E080931706B0
:1029000040E068E070E082EF93E00E942D0F0C94AD
:102910007C14089581E08093160640E068E070E042
:1029200082E793E00E942D0F0C948914EF92FF929E
:102930001F93CF93DF93CDB7DEB7A3970FB6F8946D
:10294000DEBF0FBECDBF7C0180324CE5940751F451
:10295000DB0112968C91882309F44DC00E947D14EE
:1029600080E0ECC08132BCE59B0741F4FB01828131
:10297000882309F440C00E940614F2CF8232FCE59D
:102980009F0751F480911706DB0112969C919923C1
:1029900091F18111F0CFE2CF8632BCE59B0739F48B
:1029A000FB018281882339F10E948A14D9CF8732B2
:1029B000FCE59F0741F4DB0112968C918823D9F046
:1029C0000E941114CDCF8832BCE59B0749F4FB016E
:1029D0008281882381F0809116068111F1CFE4CFA6
:1029E00083329C4541F4DB0112968C91882319F0C7
:1029F0000E941A14B5CF20911706211105C08091AD
:102A00001606882309F4E5C0FB013281332309F45B
:102A100050C0F0EEEF16F10461F40E94001481E062
:102A2000809314061092130610921206109201065B
:102A300097CF42EEE416F10471F40E9400148091E5
:102A40001406882319F081E080931306109214066F
:102A50001092120685CF83EEE816F10491F480916E
:102A60001306882331F10E9400141092140681E0AD
:102A700080931206109200061092FF051092FE0538
:102A80006FCF92E5E916F10451F48091D204909150
:102A9000D3040A979093D3048093D20461CFA1E525
:102AA000EA16F10431F48091D2049091D3040A968D
:102AB000F1CF809115061091D604811111C01350E9
:102AC0008091D404180FFB018081180F418185E0AB
:102AD00090E0841B9109FCE08F9F100D112414C01D
:102AE0008130C1F5105E8091D404180FDB018C9108
:102AF000180F11964C9185E090E0841B9109982F56
:102B0000990F990F890F180F332309F45BC0222303
:102B100019F0812F0E94CC0B80911406882351F06C
:102B200080910106E82FF0E0EE5FF94F10838F5F90
:102B30008093010681E0EF2809F012CFA3960FB62B
:102B4000F894DEBF0FBECDBFDF91CF911F91FF90F4
:102B5000EF900895823071F4105E8091D404180FC4
:102B6000FB018081180F418185E090E0841B910971
:102B7000F7E0B2CF833041F683E2E4EEF4E0DE0129
:102B8000119601900D928A95E1F7DB01EC9181E0BD
:102B900090E08C0F9D1F8E0F911DFC018091D4043D
:102BA0009091D504E80FF91F13508081180F1196EA
:102BB0004C9185E090E0841B9109ACE08A9F100D58
:102BC0001124A2CF222309F4B5CF812F0E94EC0B50
:102BD000B1CF81E0B3CF90931D0680931C0608957A
:102BE000E0911C06F0911D06309721F00190F081D4
:102BF000E02D099480E00895EF92FF920F931F93C8
:102C0000CF93DF938C01E0911C06F0911D06309765
:102C1000C1F10280F381E02D09958091760682FF53
:102C200030C080FF04C08AE894E00E948803D0E0AE
:102C3000C0E084E8E82E84E0F82E8091760680FFDC
:102C40000EC0F801EC0FFD1F80811F928F93FF9241
:102C5000EF920E9421040F900F900F900F902196F9
:102C6000C830D10551F78091760680FF0AC082E80E
:102C700094E0DF91CF911F910F91FF90EF900C9412
:102C80008803DF91CF911F910F91FF90EF900895EE
:102C900020911A0630911B062817390771F090937E
:102CA0001B0680931A06E0911C06F0911D063097D2
:102CB00021F00680F781E02D0994089520911806EF
:102CC000309119062817390771F0909319068093EF
:102CD0001806E0911C06F0911D06309721F0008443
:102CE000F185E02D0994089508950C94741681E0FF
:102CF00008950E94A2220E94110A0E942B230C9484
:102D00004423CF93C82F8091760682FF1EC080FF98
:102D100004C083EA94E00E9488038091760680FFD5
:102D20000CC01F92CF938EE994E09F938F930E94E3
:102D300021040F900F900F900F908091760680FFE6
:102D400004C08CE994E00E9488038C2FCF910C94EE
:102D500068055F926F927F928F929F92AF92BF921F
:102D6000CF92DF92EF92FF920F931F93CF93DF9357
:102D7000CDB7DEB72A970FB6F894DEBF0FBECDBF32
:102D80000E947C0A0E947716882309F478C09FE18C
:102D9000A92E96E0B92E10E000E088248394912CAF
:102DA000502E802F0E943E0B7C01F501C190D190E6
:102DB0005F01C816D90609F45CC08091760681FDD2
:102DC0000E94470B90E080E0CE24DF243401082EDF
:102DD00002C0660C771C0A94E2F79601262137217F
:102DE000232B09F441C08E835F82E620F72081E027
:102DF000EF2809F480E088870E94AB228160782F59
:102E00009A8789874E815F8168858A850E946617C7
:102E1000000F111FF801E15EF94F80819181682652
:102E20007926718260820E94F01590911E068917A2
:102E3000B9F10E94F01580931E062A960FB6F894F9
:102E4000DEBF0FBECDBFDF91CF911F910F91FF90DD
:102E5000EF90DF90CF90BF90AF909F908F907F903A
:102E60006F905F900C94811601968C30910509F05B
:102E7000ADCF0F5F1F4F0530110509F091CF8FEFD8
:102E800089838A831B820E94AB228160782F9D8375
:102E90008C8349815A816B818D810E946617C3CFD3
:102EA0002A960FB6F894DEBF0FBECDBFDF91CF914B
:102EB0001F910F91FF90EF90DF90CF90BF90AF9058
:102EC0009F908F907F906F905F900895CF93DF9346
:102ED000CDB7DEB72B970FB6F894DEBF0FBECDBFD0
:102EE0004F83588769877A878B871E821D8285E08A
:102EF000FE013796DE01119601900D928A95E1F759
:102F000049815A816B817C818D819E812B960FB680
:102F1000F894DEBF0FBECDBFDF91CF910C943A1E67
:102F2000882309F4F3C08238B9F40E94F01581FDBA
:102F3000EDC089E30E94B6200E94FA202FEF81EEB7
:102F400094E0215080409040E1F700C0000089E308
:102F50000E94BD200C94FA208338A1F40E94F01541
:102F600080FDD4C083E50E94B6200E94FA202FEF96
:102F700081EE94E0215080409040E1F700C00000D5
:102F800083E5E6CF8438A1F40E94F01582FDBEC02F
:102F900087E40E94B6200E94FA202FEF81EE94E091
:102FA000215080409040E1F700C0000087E4D0CF7E
:102FB0009CEF980F913A18F40E94B620CBCF90E284
:102FC000980F983050F4877091E001C0990F8A955E
:102FD000EAF7892F0E943021BDCF9BE5980F9330EF
:102FE00070F4853A31F0863A39F083E890E00C9439
:102FF000481681E890E0FBCF82E890E0F8CF98E5B2
:10300000980F953108F082C0883A09F440C0893A97
:1030100009F440C08A3A09F440C08B3A09F440C030
:103020008C3A09F440C08B3B09F440C08C3B09F456
:1030300040C08D3A09F440C0803B09F440C08E3A4C
:1030400009F440C08F3A09F440C0813B09F440C004
:10305000823B09F440C0833B09F440C0843B09F43F
:1030600040C0853B09F440C0863B09F440C0873B23
:1030700009F440C0883B09F440C0893B09F440C0D2
:103080008A3B09F440C090E080E00C945E1682EE2A
:1030900090E0FBCF89EE90E0F8CF8AEE90E0F5CF9C
:1030A00085EB90E0F2CF86EB90E0EFCF83EB90E002
:1030B000ECCF84EB90E0E9CF87EB90E0E6CF8CECAF
:1030C00090E0E3CF8DEC90E0E0CF83E891E0DDCFBE
:1030D0008AE891E0DACF82E991E0D7CF84E991E004
:1030E000D4CF81E292E0D1CF83E292E0CECF84E2EE
:1030F00092E0CBCF85E292E0C8CF86E292E0C5CFE6
:1031000087E292E0C2CF8AE292E0BFCF089588239F
:1031100009F44BC0823871F40E94F01581FF45C05C
:1031200089E30E94B6200E94FA2089E30E94BD2014
:103130000C94FA20833859F40E94F01580FF35C0B2
:1031400083E50E94B6200E94FA2083E5EFCF843801
:1031500059F40E94F01582FF28C087E40E94B6202F
:103160000E94FA2087E4E2CF9CEF980F913AF0F2A8
:1031700090E2980F983050F4877091E001C0990F59
:103180008A95EAF7892F0E943621D2CF9BE5980FC6
:10319000933020F490E080E00C944816885A8531F2
:1031A00020F490E080E00C945E160895882321F0CE
:1031B0000E9430210C94FA200895882321F00E9467
:1031C00036210C94FA2008958F929F92AF92BF926D
:1031D000DF92EF92FF920F931F93CF93DF937C01C7
:1031E000D62FC72FFC01058102950F701281111196
:1031F0000E944F210E94F320D82E882371F01123C2
:1032000031F180E28D0F883010F182E00E94DD20E4
:103210000E94F32091E0D82ED926BC2EB2949FE0D4
:10322000B922EB2DF0E0E95EF64E0C943F302919FF
:10323000291979197919BB19C219C219C219E319C7
:10324000C2197E1A7E1A081B111BC219341BD12CFD
:10325000E4CF0C2F0F70C07F11F00295007F112377
:10326000A9F0002359F080E28D0F883010F0D111C1
:1032700009C0802F0E9430210E94FA208D2F0E94C9
:10328000901714C0802F0E944121F6CF8D2F0E94ED
:103290008718002359F080E28D0F883010F0D1118B
:1032A00024C0802F0E9436210E94FA20DD2009F4DC
:1032B000E2C10E94D02080FDDEC1F70112820E948F
:1032C000CA200E94CB1FC7010E94471B0E94CA2030
:1032D000DF91CF911F910F91FF90EF90DF90BF9002
:1032E000AF909F908F900C94EC1F802F0E944721ED
:1032F000DBCFFC2FFF70BF2EC07FC03219F0B2941D
:1033000080EFB822DD2369F0D13029F1112369F172
:10331000002359F0F701858180FFB0CF8F7085833E
:1033200004C0112361F0011104C08B2D0E94D61836
:10333000BDCF8B2D0130D1F70E946321B7CF011192
:1033400006C00E9466218B2D0E94DD18AFCF013090
:1033500009F4ACCFF6CF112321F0063008F0A6CF48
:10336000E4CF053008F0A2CFEECF002361F38D2F1C
:103370000E9487189BCF8C2F86958695837079F055
:103380008130B9F098E0B91609F459C0B91608F4BB
:103390008DCF86EF8B0D823008F451C087CF8D2FF3
:1033A0009C2F9370111102C090E080E00E9448169B
:1033B0007DCF8D2F9C2F9370111102C090E080E083
:1033C0000E945E1673CF8C2F837009F04BC01111D1
:1033D00036C02D2F229526952770220F220F6D2F94
:1033E0006F70862E912CB12CA12C022E04C0880C5B
:1033F000991CAA1CBB1C0A94D2F760E070E0CB01B8
:10340000D4FF0FC06FE070E080E090E004C0660F72
:10341000771F881F991F2A95D2F760957095809520
:103420009095C695C695C370C23071F0A0F4682916
:1034300079298A299B29C13091F00E947D1F0E9421
:10344000F0150E94680532CF682979298A299B29BD
:103450000E948F1FF4CF0E947D1FC501B4010E94FE
:103460006B1FEDCF8695112311F08C2F817088236F
:1034700031F32D2F229526952770220F220F6D2FC5
:103480006F70862E912CB12CA12C022E04C0880CBA
:10349000991CAA1CBB1C0A94D2F760E070E0CB0117
:1034A000D4FF0FC06FE070E080E090E004C0660FD2
:1034B000771F881F991F2A95D2F760957095809580
:1034C0009095C695C695C370C23051F080F46829B6
:1034D00079298A299B29C13071F00E944220AFCFFF
:1034E000682979298A299B290E945420A8CF0E9403
:1034F0004220C501B4010E943020A1CFE0E2ED0FCF
:10350000E53108F066C0F0E0E857F54E0C943F3026
:103510009D1A9D1A9D1A9D1A9D1A9D1A9D1A9D1AF3
:103520009D1A9D1A9D1A9D1A9D1A9D1A9D1A9D1AE3
:10353000AE1ABC1AC31ACA1AD41ADF708C2F8F7134
:10354000112331F00E94CB1F8D2F0E94D6181ACF65
:103550000E94EC1F8D2F0E94DD1814CF112341F023
:10356000053008F00FCF8C2F8F710E940F200ACFEB
:10357000063008F007CFF7CF8C2F8F71112339F069
:103580000E94CB1FFFCE8C2F8F711123C9F30E9495
:10359000EC1FF8CE112329F08C2F8F710E94B61FDB
:1035A000F1CE0E94B11FEECE112349F0CF718C2FC6
:1035B0000E94CB1F63E08C2F0E94D420E3CE81E0D9
:1035C0000E94DD20023008F4DDCE82E00E94DD2082
:1035D000D9CE112349F0002321F08D2F0E9490179E
:1035E000D1CE8C2F8F71CCCF002379F0D93349F411
:1035F000FFEF27EE83E0F15020408040E1F700C06C
:1036000000008D2F0E948718BDCE8C2F8F71BFCFE9
:103610004C2F4F706D2FC7010E942F070E94E31E91
:1036200045CE111143CECF70C230B1F040F4CC235F
:1036300081F0C13009F0A6CE0E94882337CEC43075
:1036400089F068F080E0C53009F09CCE0E94172414
:103650002DCE0E945D232ACE0E94B42327CE0E9445
:10366000E12324CE83E0F2CF4C2F4F706D2FC701A2
:103670000E9432071BCEDF91CF911F910F91FF90D7
:10368000EF90DF90BF90AF909F908F9008950F9331
:103690001F93CF93DF93EC01988189812B813C812B
:1036A000232B39F08F3F19F481E09F3F19F080E020
:1036B00001C081E080FD17C0CE010E9490058823E3
:1036C00091F0688179818A810E94B3208C010E94E7
:1036D00066200E94681FB801CE01DF91CF911F9133
:1036E0000F910C94E418DF91CF911F910F910895E1
:1036F0000E944F210E9460210E94C4200E94FA2053
:1037000090E080E00E94481690E080E00C945E1605
:103710000E943E210C94781B0E94A920E92FE2957B
:10372000EF70E250EE30E0F4F0E0E756F44E0C9427
:103730003F30A71BA71BB01BB01BB21BB01BB01B9D
:10374000B01BA71BA71BB71BB01BB01BB71B803F31
:1037500019F020F4803E20F481E00895843FE1F3E5
:1037600080E00895803EC0F3813FD1F7F5CF93FB11
:10377000882780F90895CF93DF9300D000D01F925F
:10378000CDB7DEB70F900F900F900F900F90DF9195
:10379000CF910895CF93DF9300D000D000D0CDB764
:1037A000DEB726960FB6F894DEBF0FBECDBFDF9111
:1037B000CF9108951F93CF93DF93C091290616E010
:1037C00080912A068C1304C0DF91CF911F91089538
:1037D000D0E01C9FF0011D9FF00D1124E55DF94F15
:1037E0004081518162817381848195810E94CA1BCD
:1037F0002196C770E5CF40915B0650915C066091C1
:103800005D0670915E0680915F06909160060C9453
:10381000CA1B1F93CF93DF9380916006807FD1F402
:1038200080915D068823B1F080912906D0912A0607
:10383000B0915B06C0915C0640915E0650915F06B8
:10384000A1E0BF3F09F0A0E0BA016095709516E0D5
:10385000D81304C0DF91CF911F91089521E0411545
:10386000510521F02A2FCF3F09F020E090E020FD04
:1038700038C0189FF001199FF00D1124E55DF94F34
:1038800021812C132EC020812B132BC022812111CA
:1038900028C0238134812417350700F1241B350B00
:1038A000283C3105F0F4209160062F7020612093B0
:1038B000600626E0289FF001299FF00D1124E05DAD
:1038C000F94F80818F70806180838BE596E00E9444
:1038D000471BDF91CF911F910C94DA1B260F371FE6
:1038E000DFCF01968770B4CFAF92BF92CF92DF92B5
:1038F000EF92FF920F931F93CF93DF93CDB7DEB775
:1039000061970FB6F894DEBF0FBECDBF8C0185E086
:10391000F801DE011D9601900D928A95E1F7D8011C
:103920004C9111965C9111971296EC9030915B0638
:1039300060915C0680915E0690915F0621E00097A1
:1039400031F06F3F19F421E03F3F09F020E0B22F42
:10395000B170BB2E20FD80C1F801C380D480A0903F
:103960005D06AA2009F427C1C816D906D0F1D601F0
:10397000A81BB90BCD01FF24F394883C910508F0F6
:10398000F12C80916006982F907FFF2009F4CAC027
:10399000911187C0FE2C651329C0341327C0E11094
:1039A00025C08F708061809360060E94FB1B8BE5B1
:1039B00096E00E94471B80916006F80185838F2D59
:1039C00061960FB6F894DEBF0FBECDBFDF91CF91E9
:1039D0001F910F91FF90EF90DF90CF90BF90AF902D
:1039E0000895809590958C0D9D1DC5CF81E0CD28C3
:1039F00031F05F3F19F481E04F3F09F080E080FD36
:103A000024C081E08E25F82FF170DF2E80FF3FC0AB
:103A10008091290620912A0636E0821318C04D872E
:103A20005E878D859E850E94A920292F22952F7063
:103A3000223008F1243030F59F7009F1D801159635
:103A40009C91907FE1F4FB2CBACF80E0DCCF90E03A
:103A5000389FF001399FF00D1124E55DF94F618128
:103A6000561306C06081461303C062816E110FC0F9
:103A700001968770D2CF9F7011F0882321F3805E6A
:103A8000883008F3C8010E94471BBD2CDCCFEE2014
:103A900009F495CF80916006816080936006F12CD7
:103AA0008ECF651312C0341310C0E1100EC0F801A0
:103AB0008583C8010E94471B86E0F801ABE5B6E0AC
:103AC00001900D928A95E1F741C04D875E878D8503
:103AD0009E850E948C1B882309F4C8C0EE2009F43F
:103AE000C5C080916006803270F020915B063091F5
:103AF0005C0638872F831986DB86CA868C87CE01C1
:103B000007960E94471B86E0F801ABE5B6E00190FE
:103B10000D928A95E1F70E94091C0E94FB1BFF246D
:103B2000F3944DCF911115C07C2DD98AC88A6E2D82
:103B300089890E94BB1B8BE596E00E94471B86E0AB
:103B4000EBE5F6E0DF011D928A95E9F70E94FB1B89
:103B500036CF651312C0341310C0E1100EC0F80147
:103B60008583C8010E94471BEBE5F6E086E0DF0194
:103B70001D928A95E9F7FA2C22CF4D875E878D85B5
:103B80009E850E948C1B882309F470C0EE2009F4E6
:103B90006DC080916006803208F4B5CF20915B063D
:103BA00030915C063A8329831B82DD82CC828E832E
:103BB000CE010196A6CFC816D90638F1F601E81B4A
:103BC000F90BCF01F12C883C910508F03DC0FE2C8B
:103BD000EE2009F44BC0651326C0341324C0809135
:103BE000600680FD17C0982F907FA1F0D801159630
:103BF0008C931597903F09F45CCF982F907F905F3E
:103C00008F70892B15968C9354CF809590958C0D41
:103C10009D1DD8CF86E0F801ABE5B6E001900D928E
:103C20008A95E1F7CCCE4D875E878D859E850E9473
:103C30008C1B811168CF8091600681608093600643
:103C4000C8010E94471BBBCE7C2DD98AC88A6E2D25
:103C500089890E94BB1B73CFEE2041F04D875E87A0
:103C60008D859E850E948C1B81114DCFC8010E94BD
:103C7000471B55CF1F93CF93DF93CDB7DEB72C975C
:103C80000FB6F894DEBF0FBECDBF4F83588769874C
:103C90007A878B879C87CE0107960E94741C8823A5
:103CA00009F442C09F8188852A853B85232B39F002
:103CB0008F3F19F481E09F3F19F080E001C081E05F
:103CC00080FD08C04F81588569857A858B859C85E4
:103CD0000E94CA1B16E08091290690912A06891736
:103CE00009F467C0819FC0011124855D994F0E942E
:103CF000741C882309F45DC0E09129061E9FF00121
:103D00001124E55DF94F4081518162817381848185
:103D100095810E94CA1B8091290690E001968770C8
:103D2000992780932906D7CF86E0FE013796DE01DA
:103D3000119601900D928A95E1F79F8188852A85D9
:103D40003B85232B39F08F3F19F481E09F3F19F019
:103D500080E001C081E080FDBDCF20912A0630E0E7
:103D6000C9010196877099274091290648171906BD
:103D700099F096E0929FD001939FB00D1124A55D1C
:103D8000B94FFE01319601900D929A95E1F780931B
:103D90002A060E94DA1B9ECF0E94881B10922A06D8
:103DA0001092290686E0EBE5F6E0DF011D928A9588
:103DB000E9F72C960FB6F894DEBF0FBECDBFDF91AA
:103DC000CF911F910895EF92FF920F931F93CF937E
:103DD000DF938C01892B81F0F12CEE24E394E80130
:103DE0002196F8018491843770F4843008F05FC024
:103DF0008130B1F08230A1F1DF91CF911F910F910D
:103E0000FF90EF900895853709F44CC008F43DC049
:103E10009CE7980F903780F78F770E94871849C0EA
:103E20000E5F1F4FFE01849190E2980F983060F46E
:103E30008770FE2D01C0FF0F8A95EAF78F2F0E9431
:103E400052210E94FA2002C00E9490178F2D8150AB
:103E500030F2EFE9FFE03197F1F700C00000F7CF53
:103E60000E5F1F4FFE01849190E2980F983050F43E
:103E70008770FE2D01C0FF0F8A95EAF78F2F0E94F1
:103E80005821DFCF0E948718E1CF0E5F1F4FFE0140
:103E9000C491C150D8F28FE99FE00197F1F700C0BB
:103EA0000000F7CF0E5F1F4FFE01F490CFCF0E94AE
:103EB00090178E01CBCF08950E945B1F609365061B
:103EC0007093660680936706909368060C94781B3F
:103ED00008950C945C1F0F931F9300916506109139
:103EE00066062091670630916806602B712B822B45
:103EF000932B1F910F910C945C1F0F931F930091B4
:103F00006506109166062091670630916806602369
:103F10007123822393231F910F910C945C1F0F93A5
:103F20001F930091650610916606209167063091F7
:103F3000680660277127822793271F910F910C94A1
:103F40005C1F0C945B1F0C94A11F0E94A31F609325
:103F500061067093620680936306909364060C94E6
:103F6000781B60E070E0CB010C94A51F0F931F93AA
:103F700041E050E060E070E08A019B0104C0000F66
:103F8000111F221F331F8A95D2F7C901B8011F9153
:103F90000F910C94A51F0F931F9341E050E060E038
:103FA00070E004C0440F551F661F771F8A95D2F733
:103FB0008091610690916206A0916306B0916406BB
:103FC0008A019B01082B192B2A2B3B2BC901B80115
:103FD0001F910F910C94A51F0F931F9341E050E088
:103FE00060E070E004C0440F551F661F771F8A957C
:103FF000D2F7CB01BA0160957095809590950091AC
:104000006106109162062091630630916406602378
:104010007123822393231F910F910C94A51F0F935B
:104020001F9341E050E060E070E004C0440F551F72
:10403000661F771F8A95D2F780916106909162067C
:10404000A0916306B09164068A019B010827192795
:104050002A273B27C901B8011F910F910C94A51F76
:104060000F931F93009161061091620620916306E1
:1040700030916406602B712B822B932B1F910F9133
:104080000C94A51F0F931F93009161061091620677
:104090002091630630916406602371238223932369
:1040A0001F910F910C94A51F0F931F930091610610
:1040B0001091620620916306309164066027712793
:1040C000822793271F910F910C94A51F0895BF92EB
:1040D000CF92DF92EF92FF920F931F93CF93DF93D4
:1040E0008C01C0906106D0906206E0906306F0906B
:1040F00064068091650690916606A0916706B0916E
:104100006806C82AD92AEA2AFB2ACFE1D0E0BC2EC9
:10411000D701C6010C2E04C0B695A7959795879533
:104120000A94D2F780FD0EC0219788F7B12C8B2D11
:10413000DF91CF911F910F91FF90EF90DF90CF9083
:10414000BF900895B8018C2F0E944F07019761F32B
:10415000EECFCF93DF93EC010E946720BE01DF9189
:10416000CF910C944F07CB010C94A920682F80911C
:10417000D7049091D8040C941E22682F8091D70404
:104180009091D8040C9420228091D7049091D80467
:104190000C942222809169068595859585950895D0
:1041A000809169068770089598E0899F9001112495
:1041B000622B609369060C94CB1F909169068095E1
:1041C000892380936906282F277061F4282F082EF1
:1041D000000C330B9217130629F08595859585956C
:1041E0000C94EC1F089590916906977081E009F492
:1041F00080E00895E091D704F091D804809175068D
:104200008083E091D704F091D80480819091740666
:10421000892B8083E091D704F091D804808190911C
:104220007306892B808390916A06992381F0E0912F
:10423000D704F091D8048081892B80838091D704A2
:104240009091D8040E94EA21811110926A0680910F
:10425000D7049091D8040C94FC15809175060895AC
:1042600090917506892B809375060895982F9095E7
:1042700080917506892380937506089510927506BE
:10428000089590917406892B809374060895982F51
:1042900090958091740689238093740608951092F6
:1042A0007406089590917306892B80937306089580
:1042B000982F9095809173068923809373060895B3
:1042C00010927306089580936A06089510926A0604
:1042D000089590937905809378050895829590E0EC
:1042E0009C01220F331F220F331F2C7C959587953D
:1042F000959587958373282B30E0C901880F991F06
:104300008A7A359527952575822B0895CF93DF936B
:10431000D92F0E946E21C82F8D2F0E946E219C2FB5
:10432000DF91CF9108956DEE7EEF90E080E00E94E6
:10433000DB3060E082E090E00E94C93060E083E022
:1043400090E00E94C93060E084E090E00E94C930B3
:1043500060E085E090E00E94C93060E086E090E097
:104360000E94C9306FEF87E090E00C94C93090E074
:1043700080E00E94C33021E08D3E9E4F09F020E096
:10438000822F089582E090E00C94BB3083E090E0AF
:104390000C94BB30682F83E090E00C94C93084E02B
:1043A00090E00C94BB30682F84E090E00C94C9300E
:1043B00086E090E00C94BB30682F86E090E00C948F
:1043C000C93087E090E00C94BB30682F87E090E024
:1043D0000C94C930FC0131969C01285F3F4F80E06E
:1043E000919191118F5FE217F307D1F708959C0126
:1043F000FC0132969FEF80E04191461751F09F3FBC
:1044000019F4411101C0982F8F5F8630A9F79F3FA3
:1044100009F40895290F311D97FD3A95F90162833A
:104420000895FC01329608962191261303C0DF01FE
:1044300011971C92E817F907B9F708950C94F72122
:104440000C941122FC0111821282138214821582B3
:1044500016821782089580919906843051F1109246
:10446000770688E190E020E40FB6F894A895809351
:1044700060000FBE2093600080E00E94F80480E09E
:104480000E94680583B7817F846083BF83B78160A2
:1044900083BF7894889583B78E7F83BF0FB6F894D7
:1044A000A895809160008861809360001092600000
:1044B0000FBE089508950895CF930E945A220E9436
:1044C0007C0A0E945B22C0E08C2F0E943E0B892B4D
:1044D00031F4CF5FC530C1F780E0CF91089581E01E
:1044E000FCCF0E94881B0E9444230E94F0150C946C
:1044F00068051F920F920FB60F9211248F939F930E
:10450000AF93BF9380917706811113C080918E067F
:1045100090918F06A0919006B09191064196A11DB1
:10452000B11D80938E0690938F06A0939006B09352
:104530009106BF91AF919F918F910F900FBE0F90F9
:104540001F90189582E084BD93E095BD9AEF97BDCA
:1045500080936E0008952FB7F89480918E06909105
:104560008F06A0919006B09191062FBF0895CF922B
:10457000DF92EF92FF920F931F932FB7F894409121
:104580008E0650918F0660919006709191062FBF14
:104590006A017B01EE24FF248C0130E020E0C0168C
:1045A000D106E206F30650F0481B590BCA011F91D1
:1045B0000F91FF90EF90DF90CF90089541505109F7
:1045C000F3CF78941F920F920FB60F9211248F930E
:1045D0009F93AF93BF9380918E0690918F06A09189
:1045E0009006B09191060196A11DB11D80938E0693
:1045F00090938F06A0939006B0939106BF91AF91D0
:104600009F918F910F900FBE0F901F90189581E092
:104610008093E00080E28093D8001092C9008FE17F
:104620009EE40197F1F700C0000087E090EBDC0109
:104630008093A2069093A306A093A406B093A50628
:1046400088E19CE00FB6F894A895809360000FBEB7
:1046500090936000FFCF0E94B721811102C00E9499
:1046600093210E94C221809376060E94CF2190E080
:1046700090939306809392060E94C621682F70E063
:1046800090E080E00C94691F0E94B721811102C064
:104690000E9493210E94D82180939406883020F0B4
:1046A00081708660809394068091940680FF03C099
:1046B00086950C94F80480E0FCCF80919406982FA6
:1046C0009695933030F49F5F990F8170892B80937A
:1046D0009406809194068160809394060E94DC2168
:1046E0008091760680FF0FC08091940686951F9278
:1046F0008F9388EF94E09F938F930E9421040F90F3
:104700000F900F900F908091940686950C94F8046A
:1047100080919406982F9E7F79F082508093940622
:104720008E7F91E009F490E08091940690FB80F9EF
:10473000809394060E94DC218091760680FF0FC052
:104740008091940686951F928F9380EE94E09F93BC
:104750008F930E9421040F900F900F900F908091E3
:10476000940686950C94F80490919406892F8E7F78
:1047700090FF816080939406813019F483E08093E8
:104780009406809194060E94DC218091760680FF39
:104790000FC08091940681701F928F938AEC94E0F1
:1047A0009F938F930E9421040F900F900F900F9072
:1047B0008091940680FF03C086950C94F80480E0F5
:1047C000FCCF90919406892F86958F5F8F7791709B
:1047D000843050F5880F892B80939406809194063D
:1047E0008E7F91E009F490E08091940690FB80F92F
:1047F000809394060E94DC218091760680FF0FC092
:104800008091940686951F928F9386EB94E09F93F8
:104810008F930E9421040F900F900F900F90809122
:10482000940686950C94F80490939406D7CF843020
:1048300008F083E0982F990F809194068170892B5E
:10484000809394068E7F91E009F490E08091940625
:1048500090FB80F9809394060E94DC21809194065D
:1048600086950C94F80480918306089508959FB767
:10487000F89410927A069FBF90919906943009F0AF
:1048800049C02091E9002F709091EC0090FD30C05C
:1048900090E0922B23E02093E9002091EB0020FF91
:1048A00036C02091EE0027FF32C0209178062223E7
:1048B00021F02091E80025FF2AC01092780626E01A
:1048C0003091E80035FF16C08093F1008091E80038
:1048D00085FD29C08091E80080FFFCCF8091E80031
:1048E0008E778093E8009F709093E90080E00895B0
:1048F00090E8CFCF30919906343049F43091EB00F5
:1049000035FD05C0215041F481E0809378069F7009
:104910009093E9008FEF0895EFE9FFE03197F1F709
:1049200000C00000CDCF8FB7F89421E020937A0625
:104930008FBFD9CF0F931F93CF93DF9300D01F92D8
:10494000CDB7DEB78C010E941427823011F084307D
:1049500021F583E089831B830A8382E08093E90049
:104960008FEF9091E800815095FD06C095ED9A95E6
:10497000F1F700008111F5CF8091E80085FF0DC0AF
:1049800050E040E063E070E0CE0101960E943127E4
:104990008091E8008E778093E8000F900F900F9041
:1049A000DF91CF911F910F910895CF93DF9300D0A6
:1049B0001F92CDB7DEB720919906243029F522E069
:1049C0002983805891099B838A832093E9008FEF84
:1049D0009091E800815095FD06C095ED9A95F1F70C
:1049E00000008111F5CF8091E80085FF0DC050E0F7
:1049F00040E063E070E0CE0101960E943127809193
:104A0000E8008E778093E8000F900F900F90DF9171
:104A1000CF910895CF93DF93EC010E941427823049
:104A200011F0843039F581E08093E9008FEF9091A7
:104A3000E800815095FD06C095ED9A95F1F70000CC
:104A40008111F5CF8091E80085FF14C050E040E06F
:104A500068E070E0CE010E9431278091E8008E77F7
:104A60008093E80088E0FE01ABE7B6E001900D928C
:104A70008A95E1F7DF91CF91089585E395E00E9453
:104A8000880380919806811109C00E94C1280E9464
:104A90001E298091E20084608093E200089581E302
:104AA00095E00E9488031092980608958DE295E0A3
:104AB0000C94880389E295E00C94880385E295E0E4
:104AC0000E9488030C947122209179062F5F822F17
:104AD00062E30E94E92F992319F020937906089543
:104AE0001092790680917A068823E9F080919906E0
:104AF0008430B9F49091E9009F708091EC0080FDC2
:104B000013C080E0892B93E09093E9009091EB0033
:104B100090FF04C09091EE0097FD0AC08F708093C3
:104B2000E90010927A06089580E8ECCF1092F10027
:104B30009091E80095FDFACF9091E80090FFEECFBC
:104B40009091E8009E779093E800E8CF42E061EC16
:104B500081E00E943F2842E061EC82E00E943F2811
:104B600042E261EC83E00C943F2880919B06833005
:104B700009F452C030F4813059F1823009F48EC00A
:104B800008958A3009F47AC08B3009F460C0893006
:104B900009F041C080919A068132E9F580919E0624
:104BA00090919F06892BB9F58091E800877F8093CB
:104BB000E8008091E80082FF2AC08091F100809394
:104BC00083068091E8008B778093E8000C9473282B
:104BD00080919A06813AF9F48091E800877F80936A
:104BE000E80080919E0690919F06892B61F468E011
:104BF0008BE796E070E00E9480278091E8008B7739
:104C00008093E800089560E090E080E0F3CF809129
:104C100099068111CECF089580919A06813AD9F7ED
:104C200080919E0690919F06892BA9F78091E800BC
:104C3000877F8093E8008091E80080FFFCCF80911F
:104C4000E3048093F1008091E8008E77BDCF8091DE
:104C50009A06813201F780919E0690919F06892BDA
:104C6000D1F68091E800877F8093E8000E94732846
:104C700080919C068093E3040C94881B80919A0693
:104C8000813249F68091E800877F8093E8000E9496
:104C9000732880919D0680938406089580919A06DA
:104CA000813A09F0B8CF8091E800877F8093E800CF
:104CB0008091E80080FFFCCF80918406C2CF84B74A
:104CC000877F84BF0FB6F894A895809160008861B3
:104CD00080936000109260000FBE80E880936100B6
:104CE000109261000E9475160E94C1280E941E2920
:104CF0008091E20084608093E20087E394E20E9466
:104D0000692178940E94A62B0E94791689ED94E07F
:104D10000E94EB1584E195E00E948803809199063A
:104D2000853019F00E94A916F9CF80E195E00E9424
:104D300088030E942B2280919706882379F30E9492
:104D40005C22882359F30E941B27E8CF0C94A826E5
:104D5000292F33272330310579F158F421303105DB
:104D6000F1F02230310519F190E080E030E020E0F0
:104D70001AC021323105C9F122323105A9F7633059
:104D8000710590F7FB01EE0FFF1FE559FA4F2081E7
:104D9000318168597A4FFB01808190E004C082E143
:104DA00090E02CEB35E0FA013183208308958BE508
:104DB00090E021E635E0F7CF99278130910579F031
:104DC00040F08230910571F0039771F6E9E3F5E068
:104DD00002C0EDE5F5E0849190E09F01E4CFE1E5CC
:104DE000F5E0F9CFEFE3F5E0F6CF6330710508F0B9
:104DF000BBCF660F771FFB01EF58FA4F208131813F
:104E000089E090E0D0CF0895CF93C82F0E94032768
:104E1000C0938506CF91089580919906843011F052
:104E200081E0089582E0089580918506811102C095
:104E30000C940C27089580E189BD82E189BD09B4F5
:104E400000FEFDCF8091D8008F7D8093D8008091A7
:104E5000E00082608093E0008091E00081FDFCCF63
:104E60000895AF92BF92CF92DF92FF920F931F935C
:104E7000CF93DF936C01EB018A010E949228F82EF8
:104E8000811123C00115110539F0F801808191814C
:104E9000C81BD90BC80ED91EB12CA12C2097A9F084
:104EA0008091E80085FD22C08091E8008E77809394
:104EB000E80001151105A1F0F80180819181A80E8B
:104EC000B91EB182A08285E0F82E8F2DDF91CF919F
:104ED0001F910F91FF90DF90CF90BF90AF900895FA
:104EE0000E9492288823D1F2F82EEFCFF60181910B
:104EF0006F018093F1002197FFEFAF1ABF0ACECF69
:104F0000FC018091A0069091A10686179707A0F05A
:104F10006115710529F49091E8009E779093E8005F
:104F200090E06115710551F4911108C08091E8007D
:104F300082FF35C080E00895BC01F2CF80919906D0
:104F40008823C9F18530C9F18091E80083FD31C023
:104F50008091E80082FDEACF8091E80080FFE1CFF8
:104F60002091F3008091F200322F282F61157105F6
:104F700019F02830310558F091E02830310509F05A
:104F800090E02091E8002E772093E800CACF81912D
:104F90008093F100615071092F5F3F4FE7CF8091FF
:104FA0009906882341F0853041F08091E80083FF25
:104FB000BDCF81E0089582E0089583E00895FC016B
:104FC0008091A0069091A10686179707A0F0611521
:104FD000710529F48091E8008E778093E80090E0D5
:104FE0006115710551F4911108C08091E80082FFAC
:104FF00036C080E00895BC01F2CF809199068823E5
:10500000D1F18530D1F18091E80083FD32C08091EB
:10501000E80082FDEACF8091E80080FFE1CF209197
:10502000F3008091F200322F282F6115710519F0DD
:105030002830310558F091E02830310509F090E032
:105040008091E8008E778093E800CACF84918093A6
:10505000F1003196615071092F5F3F4FE6CF80918B
:105060009906882341F0853041F08091E80083FF64
:10507000BCCF81E0089582E0089583E00895982FE1
:10508000973028F08F708093E90081E00895909325
:10509000E900242F762F50E0981731F07091EC0042
:1050A0002091ED005091F00021FD02C09F5FE8CFFC
:1050B0003091EB003E7F3093EB003091ED003D7F6F
:1050C0003093ED003091EB0031603093EB00709342
:1050D000EC002093ED005093F0002091EE0027FDAE
:1050E000E5CF80E0089580919A0687FF13C08091F4
:1050F000E80082FF06C08091E8008B778093E8008B
:1051000004C0809199068111F2CF0895809199068B
:105110008823D9F38091E80080FFF8CF8091E800E0
:105120008E77ECCF2091E4003091E50085E69091F8
:10513000EC0090FF06C09091E80090FF06C080E070
:1051400008959091E80092FDFACF909199069923E5
:1051500091F0953091F09091EB0095FD10C0409149
:10516000E4005091E5002417350709F381509A01B6
:10517000F1F684E0089582E0089583E0089581E0E7
:1051800008950E942F290E943729E0EEF0E08081E7
:1051900081608083E8EDF0E080818F77808319BCA7
:1051A000A7EDB0E08C918E7F8C9380818F7E808381
:1051B0001092980608950F931F93CF93DF930E9448
:1051C0002F290E943729C8EDD0E088818F77888306
:1051D00088818068888388818F7D888319BC10923C
:1051E000990610929506109297061092960600EE78
:1051F00010E0F80180818B7F8083888181608883C3
:1052000042E060E080E00E943F28E1EEF0E0808133
:105210008E7F8083E2EEF0E08081816080838081F8
:1052200088608083F80180818E7F8083888180619F
:105230008883DF91CF911F910F910895E8EDF0E001
:1052400080818F7E8083E7EDF0E0808181608083C4
:1052500084E082BF81E0809398060C94DB28E8ED1F
:10526000F0E080818E7F80831092E200089510929A
:10527000DA001092E10008951F920F920FB60F927C
:1052800011242F933F934F935F936F937F938F934B
:105290009F93AF93BF93EF93FF938091E10082FFC1
:1052A0000BC08091E20082FF07C08091E1008B7FFC
:1052B0008093E1000E9464258091DA0080FF19C08C
:1052C0008091D80080FF15C08091DA008E7F809396
:1052D000DA008091D90080FF94C080E189BD82E12D
:1052E00089BD09B400FEFDCF81E0809399060E943C
:1052F0003D258091E10080FF19C08091E20080FF90
:1053000015C08091E2008E7F8093E2008091E200E0
:1053100080618093E2008091D80080628093D80001
:1053200019BC85E0809399060E945A258091E1007E
:1053300084FF29C08091E20084FF25C080E189BDFF
:1053400082E189BD09B400FEFDCF8091D8008F7D38
:105350008093D8008091E1008F7E8093E10080915E
:10536000E2008F7E8093E2008091E2008160809372
:10537000E20080919506882309F449C084E0809377
:1053800099060E945E258091E10083FF29C08091EB
:10539000E20083FF25C08091E100877F8093E100D8
:1053A00082E080939906109295068091E1008E7FAD
:1053B0008093E1008091E2008E7F8093E2008091F3
:1053C000E20080618093E20042E060E080E00E94C1
:1053D0003F288091F00088608093F0000E9456255D
:1053E000FF91EF91BF91AF919F918F917F916F91BD
:1053F0005F914F913F912F910F900FBE0F901F9093
:10540000189519BC109299060E944F2572CF809171
:10541000E30087FD02C081E0B2CF83E0B0CF1F92EE
:105420000F920FB60F9211242F933F934F935F93D8
:105430006F937F938F939F93AF93BF93CF93EF938C
:10544000FF93C091E900CF708091EC001092E900C9
:105450008091F000877F8093F00078940E944B2A1F
:105460001092E9008091F00088608093F000C09372
:10547000E900FF91EF91CF91BF91AF919F918F91F3
:105480007F916F915F914F913F912F910F900FBE40
:105490000F901F9018951F93CF93DF93CDB7DEB772
:1054A000AA970FB6F894DEBF0FBECDBFEAE9F6E0CB
:1054B0008091F100819326E0E23AF207C9F70E9459
:1054C000B5258091E80083FF44C080919A069091B1
:1054D0009B069A3008F03DC0E92FF0E0EE58F54DFC
:1054E0000C943F307C2AA22AA92AA22AA92A002B9E
:1054F000222BA92A792B862B803889F0823849F50E
:1055000080919E068F70873020F58093E90080910E
:10551000EB0085FB882780F91092E90006C0809196
:10552000960690919706911182609091E800977F7E
:105530009093E8008093F1001092F1008091E800D0
:105540008E772DC0282F2D7F21F48823D1F0823033
:1055500059F18091E80083FF0AC08091E800877FBD
:105560008093E8008091EB0080628093EB00AA9624
:105570000FB6F894DEBF0FBECDBFDF91CF911F9164
:10558000089580919C06813021F7933009F080E0E6
:10559000809397061092E9008091E800877F8093BE
:1055A000E8000E947328D5CF80919C068111F2CF2C
:1055B00080919E068F702FEF280F263050F6809333
:1055C000E9002091EB0020FFE5CF933031F480918A
:1055D000EB0080628093EB00DDCF9091EB00906157
:1055E0009093EB0021E030E001C0220F8A95EAF7AA
:1055F0002093EA001092EA008091EB008860EACFE5
:105600008111A7CF10919C061F778091E3008078CD
:10561000812B8093E3008091E800877F8093E800EE
:105620000E9473288091E80080FFFCCF8091E30006
:1056300080688093E30083E0111101C082E08093D1
:10564000990687CF8058823008F083CF80919C06DE
:1056500090919D068C3D23E09207A1F583E08A831B
:105660008AE289834FB7F894DE01139620E03EE08A
:1056700051E2E32FF0E050935700E49120FF03C084
:10568000E295EF703F5FEF708E2F90E0EA30C0F050
:10569000C7968D939D932F5F243159F74FBF80910B
:1056A000E800877F8093E8006AE270E0CE0101960F
:1056B0000E9480278091E8008B778093E80049CF93
:1056C000C096E7CF60919E0670919F06AE014F5F36
:1056D0005F4F0E94A626BC01892B09F43ACF909116
:1056E000E800977F9093E80089819A810E94DF27E4
:1056F000E1CF803809F02DCF8091E800877F80933B
:10570000E800809195068093F10018CF811121CF98
:1057100090919C06923008F01CCF8091E800877F22
:105720008093E800909395060E94732880919506D7
:10573000882331F084E0809399060E94A62509CF42
:105740008091E30087FDF6CF81E0F5CFCF93809184
:105750009906882399F0C091E900CF708091EC0000
:1057600080FD0EC080E0C82B1092E9008091E80017
:1057700083FD0E944B2ACF70C093E900CF9108951A
:1057800080E8F1CF5058BB27AA270E94DA2B0C944F
:10579000B62D0E94A82D38F00E94AF2D20F039F4CC
:1057A0009F3F19F426F40C94A52D0EF4E095E7FB29
:1057B0000C94912DE92F0E94C72D58F3BA17620758
:1057C00073078407950720F079F4A6F50C94E92D6A
:1057D0000EF4E0950B2EBA2FA02D0B01B90190010C
:1057E0000C01CA01A0011124FF27591B99F0593F50
:1057F00050F4503E68F11A16F040A22F232F342F98
:105800004427585FF3CF469537952795A795F040E5
:105810005395C9F77EF41F16BA0B620B730B840BFA
:10582000BAF09150A1F0FF0FBB1F661F771F881FB2
:10583000C2F70EC0BA0F621F731F841F48F487950A
:1058400077956795B795F7959E3F08F0B0CF9395FC
:10585000880F08F09927EE0F9795879508950E9475
:105860006D2D08F481E008950E94482C0C94B62D0B
:105870000E94AF2D58F00E94A82D40F029F45F3F00
:1058800029F00C94912D51110C94EA2D0C94A52D16
:105890000E94C72D68F39923B1F3552391F3951B0B
:1058A000550BBB27AA2762177307840738F09F5F41
:1058B0005F4F220F331F441FAA1FA9F335D00E2EAE
:1058C0003AF0E0E832D091505040E695001CCAF71B
:1058D0002BD0FE2F29D0660F771F881FBB1F2617DE
:1058E00037074807AB07B0E809F0BB0B802DBF01B5
:1058F000FF2793585F4F3AF09E3F510578F00C9484
:10590000912D0C94EA2D5F3FE4F3983ED4F38695F5
:1059100077956795B795F7959F5FC9F7880F911DA4
:105920009695879597F90895E1E0660F771F881F90
:10593000BB1F621773078407BA0720F0621B730B43
:10594000840BBA0BEE1F88F7E09508950E94AD2CEA
:105950006894B1110C94EA2D08950E94CF2D88F01F
:105960009F5798F0B92F9927B751B0F0E1F0660F23
:10597000771F881F991F1AF0BA95C9F714C0B13064
:1059800091F00E94E92DB1E008950C94E92D672F64
:10599000782F8827B85F39F0B93FCCF38695779593
:1059A0006795B395D9F73EF490958095709561957C
:1059B0007F4F8F4F9F4F0895E89409C097FB3EF4A7
:1059C00090958095709561957F4F8F4F9F4F99234C
:1059D000A9F0F92F96E9BB279395F69587957795CA
:1059E0006795B795F111F8CFFAF4BB0F11F460FF8A
:1059F0001BC06F5F7F4F8F4F9F4F16C0882311F0E2
:105A000096E911C0772321F09EE8872F762F05C0F5
:105A1000662371F096E8862F70E060E02AF09A9590
:105A2000660F771F881FDAF7880F9695879597F985
:105A300008950E94A82D20F019F00E94AF2D50F477
:105A40000C94A52D0C94EA2DE92F0E94C72D88F304
:105A50005523B1F3E7FB6217730784079507A8F195
:105A600089F3E92FFF2788232AF03197660F771FE4
:105A7000881FDAF7952F5527442332F09150504074
:105A8000220F331F441FD2F7BB27E91BF50B621B04
:105A9000730B840BB109B1F222F4620F731F841FE0
:105AA000B11D31972AF0660F771F881FBB1FEFCFFC
:105AB0009150504062F041F0882332F0660F771F1A
:105AC000881F91505040C1F793950C94972D86955F
:105AD000779567959F5FD9F7F7CF990F0008550F16
